:020000040800F2
:100000006008002045010008B109000871090008D6
:10001000AD0900084D080008FB10000800000000B2
:100020000000000000000000000000003D0B000880
:100030005108000800000000250A0008510C0008C3
:100040005F0100085F0100085F0100085F01000810
:100050005F0100085F0100085F0100085F01000800
:100060005F0100085F0100085F0100085F010008F0
:100070005F0100085F0100085F0100085F010008E0
:100080005F0100085F0100085F0100085F010008D0
:100090005F0100085F0100085F0100085F010008C0
:1000A0005F0100085F0100085F0100085F010008B0
:1000B000C10C0008410D00085F0100085F01000845
:1000C0005F0100085F0100085F0100085F01000890
:1000D0005F010008D90E00085F0100085F010008F9
:1000E0005F0100085F0100085F0100085F01000870
:1000F0005F0100085F0100085F0100085F01000860
:100100005F0100085F0100085F0100085F0100084F
:100110005F0100085F0100085F0100085F0100083F
:100120005F0100085F0100085F0100085F0100082F
:10013000DFF80CD000F068FB0048004759110008B8
:10014000600800200648804706480047FEE7FEE7B3
:10015000FEE7FEE7FEE7FEE7FEE7FEE7FEE7FEE777
:10016000610C000831010008F0B480EA0102D40FEC
:100170004200B2EB410F02D20246084611464A0045
:1001800042D0C30DDDB2C1F3C752AD1A202D35DA0E
:10019000C1F3160141F4000204B15242C5F1200638
:1001A00002FA06F12A411044B3EBD05F23D0C4B168
:1001B000012DA0EBC35009DCF0BC4FF0004202EA75
:1001C000C352DBB200F5000000F092BA400000F12B
:1001D000807000EBC350A0F1807040EAD1704900FC
:1001E00009E0490841EAC071A0EBC35000F50000E6
:1001F000400800EBC350F0BC00F071BA614201222C
:1002000002EB4101001BF6E7F0BC704781F00041B2
:10021000AAE780F00040A7E780EA010210B502F0EB
:100220000043400022D04A001FD0010E01EB1261B2
:10023000C0F35600C2F3560240F4000042F400023C
:10024000A0FB022000047F39140400D0401C50EAB7
:10025000124001D44000491EC2B20C0604EBD0107B
:10026000401C4008802A02D003E0002010BD20F08E
:100270000100002900DA0020184310BD2DE9FE4FCF
:10028000804681EA0300C00F0C46009021F0004137
:1002900023F00045B8EB0200A94105D240462146B3
:1002A00090461C460B46024623F00040104347D0C0
:1002B000270DC7F30A00C3F30A510290401A0190B8
:1002C00040286BDAC3F3130040F4801B0098924679
:1002D00020B10023D2EB030A63EB0B0B01985946C4
:1002E000C0F14002504600F0D9F906460D4650468E
:1002F0005946019A00F0E1F910EB08006141002431
:1003000087EA115284EAE7731A4340D0009A62B335
:10031000019A012A4FEA075215DC001B61EB02012A
:100320004FF0004202EA0752CDE90042001C41F5BD
:10033000801132462B4600F018FA03B0BDE8F08F6A
:1003400040462146F9E7001B61EB0201001C41F524
:10035000801300185B412018A2F5001747EB03013A
:1003600040EAD570B6196D4111E06D084FEA3606C6
:1003700045EAC0754FEA0752001B61EB0201001C01
:1003800041F5801149084FEA3000001951413246C9
:100390002B4603B0BDE8F04F00F0D8B90098012219
:1003A00040000023D0EB020263EBE073009821468B
:1003B0004FEAE074B8EB000061EB0401E9E783F079
:1003C00000435BE781F0004158E72DE9FE4F81EAE9
:1003D000030404F0004421F0004100944FF0000BAE
:1003E00023F0004350EA01045ED052EA03045BD0DC
:1003F000C3F30A54C1F30A552C44A4F2F334019414
:10040000A0FB0254C1F3130141F48011C3F31303A1
:1004100043F4801301FB024400FB034E840A970A55
:1004200044EA815447EA8357A4FB076802958D0A82
:1004300005FB07854FEA932C04FB0C542705029D0E
:100440004FEA065847EA1637B5EB08056EEB070C7E
:10045000870E920E47EA811742EA8312A7FB020138
:10046000B6EB0B0164EB00042B0D43EA0C335E1872
:1004700044EB1C50DA465146E7FB0201C5F3130476
:100480004FEA0B3343EA14534FEA0432019C43EA28
:100490000603A4F10C040294009CCDE900B400F022
:1004A00064F903B0BDE8F08F00200146F9E72DE9BB
:1004B000F04D81EA030404F0004B21F0004514469E
:1004C0004FF0000A23F0004150EA050220D054EA20
:1004D00001021DD0C5F30A570246C5F31303C1F349
:1004E0001300C1F30A5640F4801543F48013A7EBC0
:1004F0000608101BD64608F2FD3873EB050002D340
:1005000008F1010801E092185B41B8F1000F03DA2D
:1005100000200146BDE8F08D00204FF48011064612
:1005200084460EE0171B73EB050705D3121B63EB24
:10053000050306434CEA010C49084FEA30009218C3
:100540005B4150EA0107EDD152EA030012D082EA82
:10055000040083EA0501084305D0101BAB4106D215
:100560000122002306E000224FF0004302E06FF07A
:10057000010253101AEB06004CEB085110EB0A0075
:1005800041EB0B01BDE8F04D00F0E0B8C10F80EA8F
:10059000E0700844CA079623002100F0A9B80EB500
:1005A000C10F80EAE0700844CA07002140F23343DB
:1005B0008DE80E000A460B4600F0D7F803B000BDE8
:1005C0000EB540F2334102910021CDE900110A46F7
:1005D0000B4600F0CAF803B000BD00F0004220F066
:1005E0000040C10DC0F3160040F400007F2901DA7D
:1005F00000207047962903DCC1F19601C84001E054
:1006000096398840002AF4D04042704700F00042FA
:1006100030F000400AD0C10D01F56071C0F3160042
:1006200042EA0151C20840071143704700200146C9
:100630007047000030B5041E71F1000404DB4FF078
:100640000044404264EB0101141E73F1000405DB19
:100650001C464FF00043524263EB0403994208BF2B
:10066000904230BD01F0004330B421F0004150EA27
:10067000010206D00A0DA2F56072C1F31301002A2F
:1006800002DC30BC00207047440F44EAC104C100C2
:10069000E01830BC00EBC25000F021B8202A04DB87
:1006A000203A00FA02F1002070479140C2F1200385
:1006B00020FA03F3194390407047202A06DBCB173A
:1006C000203A41FA02F043EAE07306E041FA02F30D
:1006D000D040C2F1200291400843194670470029DA
:1006E000A8BF7047401C490008BF20F001007047B8
:1006F00010B4B0FA80FC00FA0CF050EA010404BF18
:1007000010BC704749B1CCF1200421FA04F411FA6D
:100710000CF118BF012121430843A3EB0C01CB1DB1
:100720004FEA00614FEA102042BF002010BC704722
:1007300000EBC35010440029A4BF10BC7047401CFC
:10074000490008BF20F0010010BC704710B5141E0E
:1007500073F1000408DA401C41F1000192185B417A
:100760001A4301D120F0010010BD2DE9F04D924651
:100770009B4611B1B1FA81F202E0B0FA80F2203268
:100780009046FFF78BFF04460F4640EA0A0041EA15
:100790000B0153465A46084313D0114653EA010051
:1007A00019D0C8F14002504600F040F805460E4608
:1007B000504659464246FFF771FF084305D00120D5
:1007C00004E020463946BDE8F08D0020054346EAA6
:1007D000E0762C4337430A986305E40AA0EB08004F
:1007E0000022FD0A44EA47540A3002D5002001469F
:1007F000E9E7010510196941DDE90845001969417A
:10080000BDE8F04DA2E70000064C074D06E0E068A9
:1008100040F0010394E8070098471034AC42F6D347
:10082000FFF78AFCD4150008F4150008202A04DB21
:10083000203A21FA02F00021704721FA02F3D04059
:10084000C2F12002914008431946704700BFFEE7FD
:1008500070472DE9F04102460025002600200023C4
:100860000024002791F803C00CF00F0591F803C095
:100870000CF0100CBCF1000F03D091F802C04CEA50
:10088000050591F800C0BCF1000F31D014680020BC
:100890002BE04FF0010C0CFA00F3B1F800C00CEAA9
:1008A00003069E4220D183004FF00F0C0CFA03F791
:1008B000BC4305FA03FC4CEA040491F803C0BCF104
:1008C000280F06D14FF0010C0CFA00FCC2F814C03E
:1008D0000AE091F803C0BCF1480F05D14FF0010CBC
:1008E0000CFA00FCC2F810C0401C0828D1D31460D8
:1008F000B1F800C0BCF1FF0F34DD546800202EE0D9
:1009000000F1080C4FF0010808FA0CF3B1F800C030
:100910000CEA03069E4221D183004FF00F0C0CFA23
:1009200003F7BC4305FA03FC4CEA040491F803C046
:10093000BCF1280F05D100F1080C08FA0CF8C2F838
:10094000148091F803C0BCF1480F07D100F1080CE6
:100950004FF0010808FA0CF8C2F81080401C082873
:10096000CED35460BDE8F0814161704701617047AA
:1009700000BFFEE708B50121042000F065F84FF63E
:10098000FF70ADF8000010208DF8030003208DF8F3
:10099000020069460448FFF75CFF4FF6FF7102480A
:1009A000FFF7E4FF08BD00000008014000BFFEE7BC
:1009B0007047000070B5002100230F22C47804B3F3
:1009C000154C246804F4E064C4F5E064210AC1F124
:1009D0000403CA40447804FA03F1847814402143A4
:1009E00009010E4C0678A155047804F01F05012476
:1009F000AC4005786D11AD0005F1E025C5F800416A
:100A000009E0047804F01F050124AC40044D067889
:100A1000761145F8264070BD0CED00E000E400E0E2
:100A200080E100E07047000029B1064AD269024324
:100A3000044BDA6104E0034AD2698243014BDA6174
:100A4000704700000010024029B1064A9269024333
:100A5000044B9A6104E0034A92698243014B9A6114
:100A6000704700000010024030B500210022002431
:100A700000232D4D6D6805F00C0121B1042905D02E
:100A8000082923D105E0294D056022E0274D0560A6
:100A90001FE0254D6D6805F47012234D6D6805F457
:100AA0008034022505EB92421CB9214D5543056067
:100AB0000BE01D4D6D6805F400351DB11C4D55430F
:100AC000056002E0194D5543056002E0174D0560D1
:100AD00000BF00BF144D6D6805F0F0010909154D08
:100AE0006B5C0568DD4045600F4D6D6805F4E061A5
:100AF000090A104D6B5C4568DD4085600A4D6D68E4
:100B000005F46051C90A0B4D6B5C4568DD40C5605A
:100B1000054D6D6805F44041890B074D6B5CC56858
:100B2000B5FBF3F5056130BD0010024000127A00FC
:100B300000093D000800002018000020704710B593
:100B400000F002F810BD00000CB5002001900090EC
:100B50003348006840F480303149086000BF3048B5
:100B6000006800F4003000900198401C019000984B
:100B700018B90198B0F5A06FF1D12948006800F4C8
:100B8000003010B10120009001E00020009000989A
:100B9000012843D12348006840F010002149086033
:100BA0000846006820F0030008600846006840F02E
:100BB000020008601A4840681949486008464068C1
:100BC00048600846406840F48060486008464068D5
:100BD00020F47C1048600846406840F4E810486003
:100BE0000846006840F08070086000BF0C4800684C
:100BF00000F000700028F9D00948406820F0030098
:100C0000074948600846406840F00200486000BF5D
:100C10000348406800F00C000828F9D10CBD000022
:100C20000010024000200240042808D14FF0E021CB
:100C3000096941F004014FF0E022116107E04FF033
:100C4000E021096921F004014FF0E02211617047B1
:100C500002480068401C01490860704704000020F9
:100C600010B51348006840F00100114908600846BB
:100C70004068104908400E494860084600680E491F
:100C800008400B4908600846006820F4802008608E
:100C90000846406820F4FE0048604FF41F0088605A
:100CA000FFF74DFF4FF000600449086010BD0000E1
:100CB000001002400000FFF8FFFFF6FE08ED00E024
:100CC00010B50121880700F09AF840B1012188078A
:100CD00000F086F802480068401C0149086010BD19
:100CE000000000207FB505460C4601210846FFF7AD
:100CF0009BFEADF80850ADF804400020ADF80A00A6
:100D0000ADF8060001A94FF0804000F093F80122F1
:100D10001146900700F084F81C208DF80000002098
:100D20008DF8010001208DF802008DF8030068465F
:100D3000FFF740FE0121880700F055F87FBD000055
:100D400010B501210C4800F05AF8A0B101210A4861
:100D500000F046F809480068042803DC07480068EA
:100D6000012803DA01200549086004E0034800680F
:100D7000401C0249086010BD0004004074000020BF
:100D80007FB505460C4601210220FFF74DFEADF868
:100D90000850ADF804400020ADF80A00ADF8060098
:100DA00001A90E4800F046F8012211460B4800F058
:100DB00037F81D208DF8000000208DF80100032079
:100DC0008DF8020001208DF803006846FFF7F2FD60
:100DD0000121024800F007F87FBD00000004004038
:100DE000CA430282704721B1028842F001020280A8
:100DF00004E002884FF6FE731A400280704730B557
:100E00000246002000230024158A05EA0103958983
:100E100005EA010413B10CB1012000E0002030BD4F
:100E20001AB183890B43838102E083898B438381D9
:100E300070470000002202881D4B98420ED01D4BC7
:100E400098420BD0B0F1804F08D01B4B984205D090
:100E50001A4B984202D01A4B984204D14FF68F7326
:100E60001A404B881A43174B984207D0164B9842AA
:100E700004D04FF6FF431A40CB881A4302808B8878
:100E800083850B8803850A4B98420BD0094B984207
:100E900008D00E4B984205D00D4B984202D00D4B16
:100EA000984201D10B7A03860123838270470000A8
:100EB000002C0140003401400004004000080040C4
:100EC000000C0040001000400014004000400140B1
:100ED000004401400048014010B540F225511D4832
:100EE00000F04AF810B31B4800F002F9C4B21A48E7
:100EF000008800F40040C8B91748008800F480401A
:100F000060B10A2C03D000201349088021E0124868
:100F1000008840F40040104908801AE00D2C06D1EA
:100F20000D48008840F480400B49088011E00A48D1
:100F30000088C0F30D0009490C5407480088401C84
:100F40000549088008460088B0F57A7F01DB00205B
:100F5000088010BD003801402000002078000020EB
:100F600021B1828942F40052828104E082894DF6E7
:100F7000FF731A408281704770B502460024002337
:100F80000025002040F66A16B14200D100BFC1F32F
:100F9000421501F01F03012606FA03F3012D02D1C9
:100FA0009689334006E0022D02D1168A334001E0D3
:100FB000968A33400C12012606FA04F4168834404F
:100FC00013B10CB1012000E0002070BDF0B5034664
:100FD000002400260025002040F66A17B94200D1FF
:100FE00000BF1846C1F3421401F01F06012707FA9B
:100FF00006F5012C01D10C3004E0022C01D1103097
:1010000000E014301AB107682F43076002E0076858
:10101000AF430760F0BD00002DE9F04786B00546FC
:101020000E460024A24600BFA1460027B08900B1A9
:1010300000BF2F462C8A4CF6FF700440F088044312
:101040002C82AC894EF6F3100440B08831890843F5
:10105000718908430443AC81AC8A4FF6FF400440D9
:10106000B0890443AC8201A8FFF7FEFC1F48874209
:1010700002D1DDF810A001E0DDF80CA0A88900F491
:10108000004040B10AEBCA0000EB0A103168490089
:10109000B0FBF1F807E00AEBCA0000EB0A10316878
:1010A0008900B0FBF1F86420B8FBF0F004012009DE
:1010B000642101FB1089A88900F4004040B132206E
:1010C00000EBC900B0FBF1F000F00700044308E0BA
:1010D000322000EB09106421B0FBF1F000F00F00AA
:1010E00004432C8106B0BDE8F087000000380140C1
:1010F00001468888C0F30800704700BFFEE702E0A1
:1011000008C8121F08C1002AFAD170477047002092
:1011100001E001C1121F002AFBD1704710B5FF2169
:101120000148FFF723FC10BD0008014010B56FF027
:101130000400FFF779FD42F228304FF0E0214861CA
:101140000846006940F0020008610846006940F066
:101150000100086110BD000008B500BFFFF7E6FF01
:101160004FF4E13000F0C0F9FFF704FC472140F2F2
:10117000E730FFF705FE40F2CF2140F2E730FFF7FE
:10118000B1FD1FE04FF08041888CFFF719FA064649
:1011900000220D4BFFF78BF904460D460B48006803
:1011A000FFF7FDF906460A4A0A4BFFF70EF980469B
:1011B00022462B46FFF762F88246FFF753FA00906B
:1011C00000F00AF8DEE70000006AF84000000020A6
:1011D0007B14AE47E17A843F2DE9F04F89B0824617
:1011E0004FF0000900260024A34600200890079035
:1011F0000690059004900390029000255046FFF75A
:1012000005FA07460022B14BFFF714FA00D8A246B0
:101210005046FFF7E2F905464FF4616095FBF0F0A8
:10122000F0B33C2095FBF0F100FB1154281B3C214E
:1012300090FBF1F090FBF1F201FB1206C6EB0610F9
:10124000A5EB8000001B4FF4616190FBF1F9B9F14F
:10125000090F13DCCB46012005900A2096FBF0F124
:1012600000FB116007900A2096FBF0F00890012027
:1012700003900A2094FBF0F00690C6E00A2099FB48
:10128000F0F100FB119008900A2099FBF0FB01207F
:1012900004900A2096FBF0F100FB1160069000E03C
:1012A00004E00A2096FBF0F00790AEE03C2095FBAE
:1012B000F0F0E8B33C2095FBF0F100FB115495FBF6
:1012C000F0F6092E1EDCB346012005900A2094FB9F
:1012D000F0F100FB114007900A2094FBF0F0089019
:1012E000012003902846FFF751F951460190FEF77F
:1012F00090FF80467649FEF78FFF0746FFF76DF9AE
:10130000069082E00A2096FBF0F100FB1160089045
:101310000A2096FBF0FB012004900A2094FBF0F1D8
:1013200000FB114006900A2094FBF0F007906CE05F
:10133000FFE72C46092C3ADCA346012005902846FD
:10134000FFF724F951460190FEF763FF804660499C
:10135000FEF762FF0746FFF740F908902846FFF7BF
:1013600015F951460190FEF754FF80465949FEF7A2
:1013700053FF0746FFF731F90A2190FBF1F201FB19
:10138000120007902846FFF701F951460190FEF739
:1013900040FF80465049FEF73FFF0746FFF71DF923
:1013A0000A2190FBF1F201FB120006902DE00A20C9
:1013B00094FBF0F100FB114008900A2094FBF0FB35
:1013C000012004902846FFF7E1F851460190FEF70E
:1013D00020FF80463E49FEF71FFF0746FFF7FDF856
:1013E00007902846FFF7D2F851460190FEF711FF0B
:1013F00080463849FEF710FF0746FFF7EEF80A214E
:1014000090FBF1F201FB12000690344800680128BD
:1014100012D1FFF783FE01203149086000203149D5
:10142000C1F8A4012E49083108602E49C1F8AC0169
:101430005946059800F0A8F828480068022813D1FA
:10144000FFF76CFE00202649086001202549C1F8FD
:10145000A40100202249083108602249C1F8AC01EA
:101460000899049800F090F81C480068032813D1EC
:10147000FFF754FE00201A4908601A49C1F8A40178
:10148000012017490831086000201649C1F8AC0155
:101490000799039800F078F810480068042812D1E2
:1014A000FFF73CFE00200E4908600E49C1F8A40178
:1014B0000B490831086001200A49C1F8AC010699BE
:1014C000029800F061F809B0BDE8F08F0018F5400F
:1014D000000020410000C84200007A44740000204F
:1014E000A00121420000214210B586B0044601212E
:1014F00044F20400FFF7A8FA4FF40070ADF81400AE
:1015000003208DF8160018208DF8170005A91C4837
:10151000FFF79FF94FF48060ADF8140004208DF8B8
:10152000170005A91648FFF794F925208DF800004B
:1015300003208DF801008DF8020001208DF80300D2
:101540006846FFF737FA01940020ADF80800ADF8BF
:101550000A00ADF80C00ADF810000C20ADF80E003C
:1015600001A90848FFF758FD012240F2255105481E
:10157000FFF72CFD01210348FFF7F2FC06B010BD78
:10158000000801400038014070B505460C46002CAB
:1015900019DB0A2C17DA5DB9FF210B48FFF7E6F9D2
:1015A0000A4830F8240081B20748FFF7DDF90AE065
:1015B000FF210548FFF7DAF9054830F8240081B229
:1015C0000148FFF7D1F970BD000801402400002058
:1015D0004C000020F41500080000002078000000F6
:1015E000FE1000086C16000878000020E8070000D4
:1015F0000E110008000000000000000000000000C4
:101600000102030401020304060708090204060894
:101610000000000000000000D700000014000000DF
:10162000CD0000005D0000001E0000005B00000017
:10163000DB00000015000000DF0000005F0000007C
:10164000F700000034000000ED0000007D00000005
:101650003E0000007B000000FB00000035000000A1
:0C166000FF0000007F00000001000000FF
:0400000508000131BD
:00000001FF
